:020000040800F2
:1000000010090020AD0100086B2B0008DB28000858
:1000100000000000000000000000000000000000E0
:100020000000000000000000000000006F2B00082E
:1000300000000000000000006D2B0008712B00087C
:10004000BF01000800000000BF010008BF01000858
:10005000BF010008BF010008BF010008CD0800086B
:1000600000000000BD080008BF010008BF01000833
:1000700065070008BF010008BF010008000000007C
:10008000BF010008BF010008BF010008BF01000850
:10009000BF0100087D2B0008BF010008BF01000858
:1000A000BF010008BF010008BF010008BF01000830
:1000B000BF0100083D30000800000000BF0100083B
:1000C00000F002F800F046F80CA030C808382418F8
:1000D0002D18671EA246AB4654465D46AC4201D180
:1000E00000F038F87E460F3EB6460FCC012633426C
:1000F00000D0FB1A3343A246AB461847A83900008C
:10010000C8390000103A02D378C878C1FAD852072B
:1001100001D330C830C101D504680C6070470000BD
:100120000023002400250026103A01D378C1FBD813
:10013000520700D330C100D50B60704710B5642959
:1001400002D100F08BF810BD002010BD1FB51FBDFF
:1001500010B510BD00F084FA1146FFF7F7FF02F06A
:10016000F1FF00F09CFA03B4FFF7F2FF03BC00F0CC
:10017000F1FA000070B505460C46164602E00FCCB9
:100180000FC5103E102EFAD2082E02D303CC03C5A1
:10019000083E042E07D301CC01C5361F03E02178A9
:1001A0002970641C6D1C761EF9D270BD074880470B
:1001B00007480047FEE7FEE7FEE7FEE7FEE7FEE74B
:1001C00004480549054A064B70470000792B000892
:1001D000C1000008100300201009002010050020B5
:1001E000100500200FB41CB5074B06AA7B446946D6
:1001F0000090059800F0D5F90020694600F0E4F978
:100200001CBC08BC04B01847D903000070B50446F4
:1002100085690068C10601D5302600E02026C007A8
:1002200007D070BD62683046A1689047206A401CC4
:1002300020626D1EF6D570BD70B5044685690078E4
:10024000C00707D170BD6268A16820209047206A6E
:10025000401C20626D1EF6D570BD0000F7B500256C
:1002600075291068009914A611D0C046C046002810
:1002700002DA404211A608E0009909688A0701D510
:100280000FA602E0490704D50EA6012501E0C046ED
:10029000C046009F0024243704E000F09AF9303172
:1002A0003955641C0028F8D12B4632462146009867
:1002B00000F019F9FEBD0000000000002D00000054
:1002C0002B00000020000000F3B50446002081B0A0
:1002D00020622046E168884700287DD0252802D08A
:1002E0006268A16883E0454F00257F442046E168AD
:1002F00088472028064608DB312E06D2B819203858
:100300000078002801D00543F0E7A80701D50420B4
:1003100085430020E0610746A0612A2E0AD03046BE
:1003200003F062FA002827D0B8000019303E009090
:10033000866119E00298BA00121902C89161029010
:100340002046E1688847012F064617D1E06900285A
:100350001FDA202085431CE000980A218069484369
:1003600000998019303888612046E1688847064640
:1003700003F03AFA0028EFD1012F0AD02E2E08D12F
:100380002046E16888470646202005437F1C022F4F
:10039000C3DBA069002803DA4042A06101200543C5
:1003A000E80701D010208543002E24D03046413884
:1003B000192803D80120C0020543203620462560B5
:1003C0003146029A1546FFF7B9FE00280CD00128E5
:1003D00007D0ED1DE80800E00DE0C00008300290F5
:1003E00077E72D1D029574E762683046A168904753
:1003F000206A401C6CE7206AFEBD00006A370000DE
:10040000F8B5042A2CD3830712D00B78491C03704B
:10041000401C521E83070BD00B78491C0370401CF4
:10042000521E830704D00B78491C0370401C521ED7
:100430008B079B0F05D0C91ADF002023DE1B08C9DC
:100440000AE0FFF797FEF8BD1D4608C9FD401C46AF
:10045000B4402C4310C0121F042AF5D2F308C91A65
:10046000521EF0D40B78491C0370401C521EEAD473
:100470000B78491C0370401C012AE4D409780170F0
:10048000F8BD7047704770471F22030C02D10F223E
:1004900000041CD0030E01D10002083A030F01D161
:1004A0000001121F830F01D18000921E002801DB82
:1004B0004000521ED20551180212511819229040C4
:1004C00004D3491C002801D1490849000846704757
:1004D000C10FC90700D04042012292071143D3E760
:1004E00001218907D0E7FFB504460D4681B02430CD
:1004F00000902168880604D51022E06991432160AC
:1005000000E00120A84201DD471B00E0002704981D
:10051000A1697A191018081AA0612078C00602D4BF
:100520002046FFF773FE002608E003986268A16882
:10053000805D9047206A401C761C206204988642A9
:10054000F3DB2078C0060AD52046FFF75FFE06E001
:100550006268A16830209047206A401C20623846BB
:100560007F1E0028F4DC07E000986268A168405D07
:100570009047206A401C206228466D1E0028F3DC4C
:100580002046FFF759FE2078000602D5022005B06C
:10059000F0BD0120FBE7000001694A1C02610878F8
:1005A000704700B58FB00291002105910549019374
:1005B00079440391114604906846FFF785FE0FB019
:1005C00000BD0000E5FFFFFF0A681070521C0A60C2
:1005D000704701468008081A02091018020A10180C
:1005E000020C1018C008820012185200891A01E08B
:1005F000401C0A390A29FBD27047000010B5FF23BE
:100600001B0644009C421DD84C009C421AD803464D
:10061000124A0B4307D4401A02D3EFF3008010BDF7
:10062000EFF3008010BD081A03D3EFF3008090436E
:1006300005E0EFF3008001219043C907084380F3F0
:10064000008810BD0D231B041A4204D0114600205F
:1006500000F02DF810BD00F041F810BD0000009032
:10066000754600F043F8AE46050069465346C0089B
:10067000C000854618B020B5FFF7A2FD60BCB646A5
:1006800000260027C0C5C0C5C0C5C0C5C0C5C0C5FF
:10069000C0C5C0C5403D490849008D46704710B5EA
:1006A0000446C046C0462046FFF75DFD10BDC802A7
:1006B00012D54803400F002804D0C803C0430121CD
:1006C00088407047EFF3008000010009032109070B
:1006D000084380F3008870470020704710B5024837
:1006E00000F008F810BD00000000C07F004870470F
:1006F0003800002010B50C461107090F092904D055
:100700000A290AD008290CD104E011460820FFF775
:10071000CEFF06E0510606D501E0510601D50120C5
:10072000C007214610BDD10607D501010909CC0833
:100730004907000E0006044309E0410F2002490763
:10074000000A0143200E00061D22D1410143084644
:10075000E7E7000001491820ABBEFEE726000200D3
:100760007047000080B5024800F088F980BDC0469F
:10077000EC000020B0B50146406A826B50231A425B
:1007800004D0006B026B08469047B0BD01214A02BD
:10079000836B134383630268D3681B059B0F02D0EE
:1007A00000F038F9B0BD837E002BF9D113681B0728
:1007B000F6D593685B070AD40346383354680C2592
:1007C000AC435460FF2402341A68A24306E0826BF3
:1007D00020231343836303463C33C26B0A431A60EE
:1007E00000F018F9B0BD80B5406A816B40220A4321
:1007F0008263C16B04220A43C26300F03EF980BDEC
:1008000080B5406A00F038F980BD000070B582B054
:100810000546002401940068816803220A40012AE9
:1008200005D10168C9070ED1C16809040BD48168DC
:10083000214A11420AD0A86B10210143A963E86B39
:1008400001242043E863204602B070BD8168012284
:100850000A4382606B4800686B4902F0BFFE01905A
:100860000198002817D00198401E01900198002897
:1008700011D00198401E0190019800280BD00198DA
:10088000401E01900198002805D00198401E01905B
:1008900001980028E7D100F0FDFC064628680068B2
:1008A000C007D0D100F0F6FC811B28680329F6D3DD
:1008B0000168C907F3D1BEE71700008080B5024880
:1008C00000F0DAFA80BDC0462C01002080B501207E
:1008D000400300F0D7FB80BDEFF3108072B6FEE757
:1008E000F0B583B0002702973422825C012A02D13E
:1008F000022003B0F0BD054634350668B2685207E1
:1009000017D4009701950B684A68012427469F4039
:100910003A4DAA4213D1B06AB843B0621846A04318
:100920001028009F3846019D54D1102B19D038480B
:1009300018E0816B20220A43826301204AE0B26AF8
:100940003A43B262C06A421E072A46D21846A04302
:100950001028009F3846019D3CD1102B0AD0A005DD
:1009600009E02A4826490A6802400A6038462F7082
:1009700003B0F0BDE00522490A6802430A60102B6B
:10098000384627D11F4800681F4902F027FE0A2178
:10099000414302910298002838461BD00298401E1D
:1009A00002900298002811D00298401E02900298EE
:1009B00000280BD00298401E02900298002805D013
:1009C0000298401E029002980028E7D138462F7006
:1009D00003B0F0BD2F7003B0F0BD22079042B5D038
:1009E00072690720024089689142AFD072698243E0
:1009F00072610140706908437061A7E7011000004F
:100A0000082701403000002040420F00FFFF7FFF19
:100A1000FFFFBFFFF0B581B00090144DA868FFF74D
:100A20005FFD06467F20C005114C6768394602F01D
:100A3000ABFF216802F050FF04463846314602F011
:100A40004BFF214602F0D8FE09490860094902F02F
:100A5000C0FE002801D101206861083501220098FC
:100A6000294600F075F901B0F0BDC046980000209D
:100A70000000002000803B457047704710B50446D9
:100A800000680168490702D54168490705D4016833
:100A9000090732D5416809072FD521463831A26BA5
:100AA000D20604D4012252020B6813430B60C268C1
:100AB0001205920F1BD1A27E002A18D102681207DC
:100AC00015D58268520708D442680C239A434260C5
:100AD000FF2202320868904306E0A06B2021014308
:100AE000A16321463C31E06B012202430A602046AB
:100AF000FFF790FF20680C210160016809060DD501
:100B0000416809060AD501200004A16B0143A163D5
:100B1000204600F0C9F82068802101600168C906FC
:100B200014D54168C90611D5A16A012902D0C1684E
:100B3000C90709D0E16B02220A43E2631021016078
:100B40002046FFF79AFF20681021016010BD0000C9
:100B5000F0B581B00125002862D00446064624364F
:100B6000806B002803D0A06BC00609D554E000209C
:100B70003074E063204600F099F8A06BC0064BD4B7
:100B800020688168490747D481214900A26B8A43C4
:100B9000911CA163826803210A40012A05D10268E1
:100BA000D2070ED1C26812040BD4C26818239A432C
:100BB000A3681343C360890702698A4361681143CC
:100BC0000161C168364A0A40C260A16A491E4A1ED4
:100BD00091410903227E9203637EDB031343A27ECD
:100BE00055031D43E36827692B430B43B91E4D4250
:100BF0004D41AD001D43317849002943E37E012B6F
:100C000014D1002A0FD0A26B20231343A363E26BFD
:100C100001231343E36309E0A06B10210143A163A7
:100C2000284601B0F0BD012212041143E269FF23FE
:100C3000C2339A4202D00A43216A1143C2680A436E
:100C4000C260E26A531E072B24D243690725AB43D7
:100C500043612A40436913434361C068114A02401B
:100C60008A420AD10025E563A06B012101430220DD
:100C70008143A163284601B0F0BDA06B1021014360
:100C800002208143A163E06B01252843E0632846ED
:100C900001B0F0BD01231B079A42D6D0DDE7C04664
:100CA0001902FEFFE7FF3F8370470000F0B587B0F1
:100CB000044600260696059600682149884201D020
:100CC00007B0F0BD1F484168012702977A020092E1
:100CD0001143416041681140019101997904026812
:100CE0000A430260006808400190049603200390C4
:100CF00001980920C00602A900F0D0F9124DF802AF
:100D00008021124A44C52E6069600099A960E8609C
:100D10002E616E61083D284600F018F9002801D0C8
:100D2000FFF7DAFD6C6225630C24002120460A4699
:100D300000F0F6FC204600F0E7FC07B0F0BDC0462E
:100D400000240140141002402C0100200800024041
:100D5000F0B583B00446006880680227400714D4C9
:100D60003420205C012810D00E4625463435012061
:100D700002902870607E01280AD020461746FFF7AF
:100D800045FD3A460746002802D0384603B0F0BD7C
:100D90000192A06B13490140029B18020818A0633E
:100DA0000027E76321681C2008604868102202437E
:100DB0004A602F70206B0D4A0D4D8562C2620A4A4F
:100DC0000263CA681A43CA6040313246019B00F090
:100DD000FBF82068816804220A438260384603B029
:100DE000F0BDC046FEF0FFFFE7070008010800085D
:100DF0007507000810B52121425C01462031022A06
:100E000012D1026813680E24A343136013680124EF
:100E1000A3431360C26B006C2346834053604C7045
:100E2000002000220A7010BD0422826301200022EB
:100E30000A7010BDB0B52121415C022918D10146CC
:100E40002031026813680E24A34313601368012540
:100E5000AB431360C26B036C2C469C40546000246F
:100E60000C704D70416B002900D088472046B0BD02
:100E7000042181630120B0BDF0B585B0C16B026C67
:100E800004273C460292944003910E68214631406B
:100E90004B424B41049005682868014639404A425C
:100EA0004A411A4330D001950123022701463940B7
:100EB0004C424C41029A974037421D4619463346F0
:100EC00000D02146049E3446203400292CD008212D
:100ED0000840474247411046D340190700D53D46D8
:100EE000002D019B1ED119680E229143196001212A
:100EF0000A468240039B5A60B163002222706170EF
:100F0000316B00290CD10DE02968890602D42968CB
:100F1000B943296003994C60049EF16A002901D00D
:100F20003046884705B0F0BD019B1968890605D495
:100F300019680A2291431960012161700021217012
:100F400003994F60B16A0029EAD1EBE7F0B585B0AB
:100F500000282FD004460646203602207070A2CC0E
:100F6000236860680190A0680290E068039020699F
:100F700004900868114A02402A433A431A430198F0
:100F800002430298024303980243049802430A6012
:100F90000025E5620A48206335700A480C3C0818B1
:100FA000142102F01BFB8000206401207070284691
:100FB00005B0F0BD0125284605B0F0BD0FC0FFFF0C
:100FC00000000240F8FFFDBFF0B582B004462020CB
:100FD000255C0220012D2AD02646203601253570B9
:100FE0007778012F21D1022070700020A06326683D
:100FF0003768AF433760E76B0097276C0195BD40BA
:10100000009F7D6073606368102B174600D00F4609
:10101000B760102B00D01146F1603168E26A002AF7
:10102000019B06D00E22114309E00021317002B06D
:10103000F0BD0A22114331603168042291433160CE
:1010400031681943316002B0F0BD0000B0B504460C
:1010500000F020F90546601C02D00448007804190D
:1010600000F018F9401BA042FAD3B0BD28000020C0
:1010700001214A03904201D1014801617047C046F5
:101080009800002080B504490A68024202D0086036
:10109000FFF7EEFF80BDC04614040140F0B58EB0EE
:1010A00007466E48874201D0052000E003200090EB
:1010B00008680C90002800D1CEE00123002403939F
:1010C0000B940A940791099711E00C9A1043644A13
:1010D000D06008680C90D840241D5B1C0B9A921CB1
:1010E0000B920A9A521C0A92002800D1B4E05A1EB0
:1010F0000398089290400C9A02400C92E9D0059314
:101100004B6803261A463240551E012D0694029361
:1011100018D803260B9FBE40099CA168B143079DC8
:10112000ED68BD400D43A560D906C90F089DA940D3
:10113000656885430D436560069C0799F3430A98EB
:1011400045000BE030460B9DA840C343032A05D160
:1011500004930B983246099F029B22E0099F2E467A
:10116000F86818408D680196B5400543FD60022A75
:10117000049314D11C2020400F218140089AD208EA
:101180009200BA18156A8D4307990E6986402E435E
:1011900007991662099F4B6803221A4000E0029BE0
:1011A000019882403868049D2840104338609803B5
:1011B000800F059B8DD02B4A1068012108431060D9
:1011C000106808400D900C2222400F259540032006
:1011D000089E86430D98244C3059A843351909269A
:1011E000F606099CB442099F09D0204CA74207D0BB
:1011F0001F498F420099069C03D1022101E0002182
:10120000069C9140014329601548006807994D6884
:10121000EA0302D50C9A104301E00C9A9043104A5D
:1012200010605068AA0302D50C9A104301E00C9A92
:1012300090430B4A50609068EA0202D50C9A104322
:1012400001E00C9A9043064A9060D068AA0200D54B
:101250003BE70C9A90433AE70EB0F0BD000C004813
:10126000000401401810024008000140000400483A
:101270000008004842690B4693430A401104C9180C
:1012800081617047002A02D01822815070472822BD
:1012900081507047F94800687047C046B0B50246B3
:1012A0004120135C0220202B19D1134640331C78B7
:1012B000012C14D024205870106802680124A24325
:1012C0000260220305689543056002680A430260D4
:1012D0000168214301600020187020215970B0BDC1
:1012E000B0B502464120135C0220202B19D11346D1
:1012F00040331C78012C14D02420587010680268E8
:101300000124A24302600F221202056895430902DC
:1013100029430160016821430160002018702021E9
:101320005970B0BDF0B581B0002822D00446054602
:1013300040356878002804D100202870204600F04D
:1013400065F9242068702068026801218A430260E0
:101350000F2212066368934303618368194A13409E
:101360008360A368E668012E06D1CE033343836011
:101370000AE0012001B0F0BD2127BF023B4383609A
:10138000022E01D1CB02436043680F4E1E434660DC
:10139000C3681340C360226963691343A2691202E0
:1013A0001A43C260E269236A1343036002680A4376
:1013B000026000206064202169702063A87001B081
:1013C000F0BDC046FF7FFFFF00800002F0B589B08E
:1013D0001446054641202A5C0220202A0BD10E9F8C
:1013E000002F0AD00F9A002A07D007922A464032CF
:1013F0001678012E06D109B0F0BD012041026964C2
:1014000009B0F0BD0393049101200690059210707D
:10141000FFF740FF014628688069000408910CD559
:101420000698C603FFF736FF0899401A192800D915
:10143000D1E0286880693042F4D1109A2220059EBC
:1014400070704020B070002068646F620746686367
:1014500007986885079200920191284604992246D0
:10146000039B01F095FA002803D03770069809B065
:10147000F0BD079E0397688D000A0DD05D48049B60
:101480000340286841685A4A0A401F46D1185B4AFF
:1014900089184160FF210FE0698D28684268544B2C
:1014A0001340544A049C1440CAB21204274612192D
:1014B000D218514BD21842602985514C334681696C
:1014C00049071BD4591C0DD0002B7FD0FFF7E2FE3B
:1014D0000899401AB0427ED8334628688169490786
:1014E000F4D50BE08169490708D48169490705D41F
:1014F0008169490702D481694907F3D5696A406A5D
:101500000870688D401E6885686A401C6862288D76
:10151000401E2885698D002939D0000437D12868FC
:10152000816909061BD4591C0DD0002B51D0FFF73F
:10153000B1FE0899401AB0424DD8334628688169F7
:101540000906F4D50BE08169090608D4816909060A
:1015500005D48169090602D481690906F3D5698D2C
:10156000090A08D0FF212985416821403943254ACD
:10157000114341600BE0698D298542682240C9B260
:101580000904C9191143012252060A434260688DB9
:10159000002804D028688169490793D5AEE728461A
:1015A0001946089A01F064FA00280698059C00D0B4
:1015B00021E728682021C1614268134B1340436032
:1015C000617003982070A07009B0F0BDFFF762FE53
:1015D00001E0FFF75FFE686C202108436864059A0C
:1015E0005170002010709070069809B0F0BDC04690
:1015F0000098007CFF030000002400820024FF818B
:10160000009C00FC0000FF0100E800FEB0B586B0C1
:1016100000681349884201D006B0B0BD114C206863
:1016200001250595A9040843206020680840009022
:10163000032004900020039012200290C02001900B
:101640000098094801A9FFF729FD6805A168014331
:10165000A160A16801400091009806B0B0BDC046ED
:101660000054004014100240000400481A4800785A
:1016700002490A68101808607047C0460C03002031
:1016800010B5C948016810220A43026000242046B0
:1016900000F004F800F022F8204610BD70B50446B2
:1016A0007D20C0000C4E317801F098FF0146C648FD
:1016B000006801F093FF00F0B1FB0125032C08D86E
:1016C000002806D10025E84321462A4600F028F8E4
:1016D0007460284670BDC0462800002082B00948CA
:1016E00001680122114301600168114001910199D3
:1016F000110742680A434260406808400090009821
:1017000002B0704718100240002805D41F2108407D
:1017100001218140014801607047C04600E100E0BE
:10172000002805D40322034693430C4A9A1806E086
:101730000F220240083A03239A43074BD21880072E
:10174000C00E8901C9B28140FF23834010689843CD
:10175000084310607047C0461CED00E000E400E064
:10176000F0B585B004468078C007414B4FD00120CA
:10177000039001071A1F10680840029006D11068F4
:10178000084310601068084004900498009201918A
:10179000384E3068C00513D40398070230683843C8
:1017A0003060FFF777FD05463068384208D1FFF713
:1017B00071FD401B6428F7D90325284605B0F0BD0C
:1017C000032528022A4B1968014012D062680240A2
:1017D00091420ED00398000419681A6802431A60F7
:1017E0001A6882431A600846234A10401860C807E6
:1017F00030D1186820490840616801431960029897
:10180000002804D1009A106801998843106020686C
:10181000C10705D181060BD400258003CDD510E08A
:10182000196903229143A2680A431A618106F3D51C
:10183000196910229143E2680A431A610025800366
:10184000BBD5186980218843216901431961284665
:1018500005B0F0BDFFF71EFD0646544F044B186857
:101860008007C6D4FFF716FD801BB842F6D9A4E75F
:101870002010024000700040FFFCFFFFF0B581B077
:10188000002861D00446484A1368012003408B4277
:1018900008D213680126B3430B4313601268324029
:1018A0008A424ED1009121688A07544B11D54A07CC
:1018B00007D507221202514B1B6813434F4A13608E
:1018C0004E4B1A68F0239A43A36813434B4A1360A4
:1018D0004A4BC9073CD13449086801263040009A78
:1018E000904205D90868B04308600868C00728D14D
:1018F0002078400706D50720000219688143E06878
:101900000843186019680C220A403D48082A0CD187
:101910008902090F3B4A545C996A0F220A403A49EE
:10192000895C01F05BFE354B604319680906090FBD
:101930001F4A515CC8402449086000263046FFF722
:10194000ADFE304601B0F0BD0126304601B0F0BD1D
:1019500061681A1F022906D0012909D11268920371
:101960000646EED508E0126892010646E9D503E086
:10197000126892070646E4D518680326B043084368
:101980001860FFF787FC0746084D1C4B18680C21B0
:1019900001406068800081429DD0FFF77BFCC01B46
:1019A000A842F2D9CDE7C0460020024088130000CB
:1019B000693A000804480068104909684905490F58
:1019C000024A515CC840704730000020793A000854
:1019D00010B50A490A680C2313400948082B0BD19B
:1019E0009202120F074B9C5C896A0F220A4006493B
:1019F000895C01F0F3FD604310BDC0460410024055
:101A000000127A00813A0008913A0008F0B587B0D8
:101A100004460120002C00D1F5E104902078C00795
:101A2000FB4E059419D071680C20014004290DD09B
:101A300071680140082900D0C0E00320C00371682C
:101A4000014001200004814200D0B7E030688003EB
:101A500003D56068002800D118E1207880071FD5E1
:101A600070680007800F0CD070680C2101400829B5
:101A70007AD10320C003716801400120C003814274
:101A800072D130688007059C03D5E068012800D03A
:101A9000FCE03068F82188432169C90001433160C6
:101AA000059C2078000724D42078400736D420787D
:101AB000C00600D4C5E005984069411D00D1B4E0DE
:101AC000012800D007E1706B042101437163706B42
:101AD000012101437163FFF7DDFB0546706B800751
:101AE00000D5A6E0FFF7D6FB411B03200229F5D95C
:101AF00089E1706AE169002974D0012108437062AC
:101B0000FFF7C8FB0546706A8007CDD4FFF7C2FB1C
:101B1000401B0228F7D9032007B0F0BD0120039035
:101B20000107F0690840029006D1F0690843F061AE
:101B3000F0690840069006980191B64F3868C005D4
:101B400028D403980402386820433860FFF7A2FBCA
:101B50000546386820421DD1FFF79CFB401B6428D6
:101B6000F7D9032007B0F0BD3068059CE168002973
:101B70004AD0012108433060FFF78CFB05463068EE
:101B8000800786D4FFF786FB401B0228F7D9032085
:101B900007B0F0BD059880689F4F002800D1AFE0E6
:101BA000052800D1C1E0012800D1C2E0306A0399C4
:101BB00088433062306A04218843BDE061680120B7
:101BC0004704002900D1D0E0052900D1E4E0012933
:101BD00000D1E5E0010432688A4332608104306854
:101BE0008843E0E0012188437062FFF753FB05461C
:101BF000706A800700D457E7FFF74CFB401B0228B0
:101C0000F6D9032007B0F0BD012188433060FFF70B
:101C100041FB05463068800700D441E7FFF73AFBF7
:101C2000411B03200229F5D9EDE0706B04218843A4
:101C30007063706BF821884305998969C900014375
:101C400071630598046A002C1DD070680C21014056
:101C500008291ED1012C19D00320C203706802404C
:101C6000F16A059C636A9A4210D10F221140E36A1F
:101C70009942049B00D0C8E091040840A16A8842C0
:101C8000184600D0BFE0002007B0F0BD049807B0B0
:101C9000F0BD01200206316804929143316047068D
:101CA000FFF7F8FA0546022C0BD1049C3068384245
:101CB00000D188E0FFF7EEFA411B03200229F5D995
:101CC000A1E030683842DED0FFF7E4FA411B032080
:101CD0000229F6D997E0706B042101437163706BA0
:101CE000012188437063FFF7D5FA0546706B8007C2
:101CF000A7D5FFF7CFFA411B03200229F6D982E0CE
:101D0000306A039988433062306A04218843306224
:101D1000FFF7C0FA0546306A80071CD5FFF7BAFA0C
:101D2000411B0320B942F6D96DE0306A042101431A
:101D30003162306A039908433062FFF7ABFA054617
:101D4000306A800707D4FFF7A5FA401BB842F7D9DD
:101D5000032007B0F0BD02980028059C00D0A6E63D
:101D6000F06901998843F061A1E6010432688A4371
:101D700032608004316881433160FFF78BFA054699
:101D8000059C3068384200D167E6FFF783FA411BB3
:101D900003206429F5D936E0810432680A433260B1
:101DA0000104306808433060FFF774FA0546306874
:101DB000384200D051E6FFF76DFA401B6428F6D98F
:101DC000032007B0F0BDF06A0F218843059AD16A5D
:101DD0000143F1627B20C00371688143906A08432C
:101DE000516A01437160306820433060FFF752FA56
:101DF00004463068384200D045E7FFF74BFA011B34
:101E000003200229F5D907B0F0BD184607B0F0BD90
:101E1000001002400070004088130000401E010EB8
:101E200001D0012070470749074A506007480368FE
:101E30000B40032189075918016000209060072199
:101E400011607047FFFFFF0010E000E020ED00E0B0
:101E500070477047B0B5002824D0044605463C358D
:101E60006878002804D100202870204600F062F82D
:101E70000220687020680368274A904202D02749F0
:101E8000884211D170218B43A1681943244B984299
:101E90000EDC224B984214D0244B984211D0904231
:101EA0000FD037E00120B0BD19461D4B9842F0DD40
:101EB0001C4A904205D01C4A904202D02C4A9042C3
:101EC00028D103221202914322690A4380218A43C6
:101ED000A16911430160E168C162616881621449CE
:101EE00041180A22D141072906D801228A40E1215E
:101EF0000A4201D06169016301214161A972A9709F
:101F0000E97029716971A971E97129726972697041
:101F10000020B0BD0A46D9E7002C01400004004073
:101F2000FF3F0140004001400048014000200040C8
:101F300000D4FEBF10B582B000680D49884201D0C0
:101F400002B010BD012040040A490A6802430A6039
:101F500009680140019101981524002120460A4694
:101F6000FFF7DEFB2046FFF7CFFB02B010BDC046F7
:101F700000440140181002407047B0B5044680206C
:101F8000C54320680169890717D5C168890714D539
:101F900029467E310161012121778069800703D0C4
:101FA0002046FFF7E9FF05E0204600F08AF82046CA
:101FB00000F088F80020207720680169490718D5CB
:101FC000C168490715D529467C3101610221217775
:101FD00080698005800F03D02046FFF7CDFF05E024
:101FE000204600F06EF8204600F06CF800202077C4
:101FF00020680169090717D5C168090714D5294662
:102000007831016104212177C069800703D020461F
:10201000FFF7B2FF05E0204600F053F8204600F03D
:1020200051F80020207720680169C90618D5C168D9
:10203000C90615D529467031016108212177C0698B
:102040008005800F03D02046FFF796FF05E020466D
:1020500000F037F8204600F035F80020207720689F
:102060000169C90709D0C168C90706D029467F316F
:102070000161204600F028F820680169090607D5AB
:10208000C168090604D505612046FFF7E1FE206816
:102090000169490609D5C168490606D52946403176
:1020A0000161204600F022F820680169890607D501
:1020B000C168890604D5603505612046FFF7C9FE71
:1020C000B0BD70477047000080B50649884200D017
:1020D00080BD0920C0062021FFF7CCF8024801216D
:1020E000C16080BDBC01002098000020704770478F
:1020F00070470000F0B589B00368D9691F682022D5
:102100000797049217407C427C410125EA0216465B
:102110002F3608910E40203E711E8E4126439E6848
:1021200055D00297039305950690074658371146F8
:102130000F3108980842079D06D0D4492940012351
:102140001E40711800D084E00297102329461940E0
:102150004E424E41089919404F424F410698016E38
:10216000012905980446039937D13C46002C0446C2
:1021700036D0002C069F37D08021294003464842A4
:1021800048410899090600D50346002B00D1DAE042
:10219000402005406B426B410899490600D50593E4
:1021A0000599002911D1EFF31081012282F31088E3
:1021B0003A6813688343136081F310880020B8667F
:1021C0000498B867384600F087FB09B0F0BD416E4F
:1021D0000029FAD0884709B0F0BD002C0446C8D1C8
:1021E0003446002C069FC7D10B628868400600D594
:1021F000B1E0029A508811885288002AE5D0081A66
:102200000104E2D0EFF31082012181F31088092448
:1022100064013D682E68A6432E6082F31088EFF3B8
:10222000108281F310883C68A5688D43A56082F315
:102230001088049AFA6700227A663A66EFF31082F1
:1022400081F3108839680C689C430C6082F3108815
:10225000C8E00192190229404C424C41089DE9070F
:1022600005980146039A00D02146002903D1136244
:10227000B96A1943B96274427441A907014600D58D
:102280002146002905D102211162B96A04240C43B8
:10229000BC6274427441690701460BD5214600298E
:1022A0000AD104211162B96A02240C43BC622907D5
:1022B0000CD503E00029F4D0290707D502990E4375
:1022C00004D008211162BC6A0C43BC629906079ACB
:1022D0000A40544254412A4601990D42054600D015
:1022E0002546002D06D1039801990162B96A049828
:1022F0000143B962B96A0029069D029900D164E7D9
:102300003846049E32404C424C41002A00D005948D
:1023100005990029044603981F4605D1696E0029D6
:1023200002D0284688472868A16A28230B40816884
:1023300040200140C9185BD12846FFF7D9FE002094
:10234000A06209B0F0BDB96E002900D13DE7384662
:10235000884709B0F0BD396F0868426894B2002C14
:1023600000D132E702980088844200D32DE7029E14
:1023700072808969202933D0EFF31081012080F326
:102380001088444A20323C6825681540256081F356
:102390001088EFF3108180F310883A6894688443C2
:1023A000946081F31088EFF3108180F310883A680D
:1023B00094684025AC43946081F310880499F967D0
:1023C00000213966EFF3108180F3108838680268C5
:1023D0009A43026081F31088386FFEF70BFD308856
:1023E0007188401A81B23846FFF781FE09B0F0BD0E
:1023F000EFF3108187F31088092252012B681C68C3
:1024000094431C6081F31088EFF3108187F31088E8
:102410002A6893680897BB43936081F31088296EFC
:1024200001290BD1EFF31081089A82F310882A68F2
:1024300013681024A343136081F31088EE67002112
:102440002966696629688968490619D5EFF31081FC
:10245000089A82F310882A6893688343936081F313
:102460001088286F00280BD009494163FEF7E2FC71
:10247000002800D1A9E6286F416B884709B0F0BD5C
:102480002846FFF735FE09B0F0BDC0462001000424
:102490005F2C0008DFFEFFFFF0B583B0002840D0BE
:1024A000044607467437806F002804D10020387036
:1024B000204600F057F82420A06720680168012515
:1024C000A9430160204600F079FC012826D0606A0B
:1024D000002802D0204600F059FB0126F0022168B6
:1024E0004A6882434A608868082290438860086886
:1024F000304308600025FD60FEF7CCFE03462068EF
:102500000168090713D5164800907105002220467E
:10251000029300F0F7FC002807D00325284603B0FB
:10252000F0BD0125284603B0F0BD2068029B00687D
:1025300040070CD50A480090B1050022204600F063
:10254000E1FC002803D00325284603B0F0BD20207D
:10255000A067E0673D702566284603B0F0BDC04621
:10256000FFFFFF01B0B586B00024059404940394E6
:102570000294019400682749884222D02649884263
:1025800046D1264881680122059252041143816098
:102590008168114000910099016811430160006851
:1025A00010400090032004900394022002900C201D
:1025B000019000980920C00601A9FEF76FFD06B042
:1025C000B0BD1648816801220592930419438160C9
:1025D0008168194000910099D10402680A430260A1
:1025E00000680840009003200490039402200290A9
:1025F0003020019000980A4801A9FEF74FFD1D25E3
:10260000284621462246FFF78BF82846FFF77CF83C
:1026100006B0B0BD00480040004400401410024025
:1026200000080048F0B584B0C36F0227202B10D1FA
:102630000123002917D0002A15D00124260383681E
:10264000B3420AD1CB0708D00369002B05D123463A
:1026500009E03B46184604B0F0BD054658352B7FCF
:10266000012B3B4602D1184604B0F0BD002303669F
:102670002C7707687F683F02039611D5EFF3108629
:10268000029684F31088A6060196066800963768BD
:10269000019E3743009E3760039E029F87F3108898
:1026A0006A802A80416543668168002909D0220733
:1026B00091420BD0B1420ED10169002904D1854964
:1026C0000CE00169002908D1FF2107E00169002918
:1026D00003D03F2102E0AB8001E07F21A980AB6203
:1026E0002221C167EFF3108184F310880268966895
:1026F0002643966081F310888168039A914202D143
:102700000169002911D00B492B774166EFF3108145
:1027100084F310880922520100680468144304609D
:1027200081F31088184604B0F0BD0149ECE7C046BB
:10273000752C0008172D000870B5234E3446173449
:1027400022480F220A2521462B4600F043F8092093
:10275000C0062021FEF78EFDF17D303948221C484D
:102760008154317F30394B228154A17A30394E2245
:102770008154317E6943727E511810394922815447
:10278000717F6943B27F511810394C228154E17A2C
:102790006943227B511810394F228154B17E69431D
:1027A000F27E511810394A228154F17F6943627ACE
:1027B000511810394D228154617B6943A27B511815
:1027C00010394E30817070BD0000002004020020DE
:1027D00098000020F0B587B00E460446816F0220B5
:1027E000202910D10125002E18D0002A16D0012151
:1027F0000F03A568BD420AD1F50708D02569002D51
:1028000005D10D460AE00546284607B0F0BD0497FD
:10281000274674373D78012D054602D1284607B07A
:10282000F0BD059302923846274650370025C56013
:10283000039001702120A067FEF72CFD06900298FE
:1028400078803880A068049988420AD120690028DD
:10285000049601D0002104910028059903D1064671
:1028600001E004950599039805700CE0049A10881E
:102870001849084021680885921C04922E46059943
:102880007888401E78807888002810D000918021B8
:10289000002520462A46069B00F034FB002810D174
:1028A000002EE3D0307821680885761CE7E7009198
:1028B0004021002520462A46069B00F023FB0028E5
:1028C00003D00325284607B0F0BD2020A067284686
:1028D00007B0F0BDFF0100007047FEE7F0B581B022
:1028E0000E46044600688169C90602D4002001B082
:1028F000F0BD15464168890104D40121890342686D
:102900000A43426027464037816989060FD4002E6A
:1029100038D0711C2FD18169890608D48169890654
:1029200005D48169890602D481698906F3D510210D
:10293000C1612021C1618169890701D500218162BE
:102940008169C90703D1816901220A438261416813
:102950000E4A0A4042600420616C014361642020F9
:10296000787000203870B870012001B0F0BD206888
:1029700081698906DBD4FEF78DFC401BB042F6D995
:102980002020E9E7FEF786FC2020E5E700E800FECE
:10299000F0B581B01C460092054632480840D9B2D5
:1029A0000904081829684A682F4B134018182F4A41
:1029B00080184860069E079F284631463A4600F038
:1029C0008BF80122002802D0104601B0F0BD012C86
:1029D0000CD028680099090A8162284631461446BD
:1029E0003A4600F079F822460028EDD1286800998F
:1029F000C9B281628169002449060FD4002E11D02A
:102A0000711C20D18169490608D48169490605D421
:102A10008169490602D481694906F3D522461046E8
:102A200001B0F0BD0092FEF735FC28464030696CDD
:102A30002022114369644270002101708170009A64
:102A4000104601B0F0BD0092FEF724FCC01BB0425E
:102A5000EBD8286880694006F6D52246104601B0BA
:102A6000F0BDC046FF0300000098007C00200080FD
:102A700070B515460446002911D00E4620688069BD
:102A8000800619D4204631462A46FFF727FF002842
:102A900010D1FEF7FFFB401BB042EFD910E02068D9
:102AA0008069800608D4002120462A46FFF716FFD9
:102AB000002803D0012070BD002070BDFEF7EAFBA6
:102AC00020464030616C2022114361644270002135
:102AD00001708170012070BDF0B581B004460068BE
:102AE00080690025800711D416460F46002921D0A1
:102AF000781C17D10025E94320463246FFF7EEFE49
:102B000000281ED1206880698007F3D5284601B0CF
:102B1000F0BDFEF7BFFB801BB84218D82068806963
:102B20008007F3D4204639463246FFF7D7FE002807
:102B3000EFD006E0002120463246FFF7CFFE002806
:102B400003D00125284601B0F0BDFEF7A3FB2046C7
:102B50004030616C20221143616442700021017099
:102B600081700125284601B0F0BDFEE7704770472F
:102B700080B5FEF77BFD80BD7047000080B5024840
:102B8000FFF7FBF980BDC046BC010020B0B5416A2B
:102B9000CA070CD18A0714D44A071CD40A0724D4C4
:102BA000CA062CD48A0634D44A063CD44CE001220E
:102BB000520403685C689443826A22435A608A071D
:102BC000EAD50122120403685C689443C26A224376
:102BD0005A604A07E2D50122920403685C68944374
:102BE000026B22435A600A07DAD50122D203036836
:102BF0005C689443426B22435A60CA06D2D50122D4
:102C0000120303689C689443826B22439A608A068D
:102C1000CAD50122520303689C689443C26B2243C5
:102C20009A604A0610D501221305026854689C4335
:102C3000056C2C4354609D4206D103235B05546808
:102C40009C43436C23435360090607D50121C90403
:102C5000026853688B43806C18435060B0BD80B5E8
:102C6000406A0146523100220A8152214252FFF746
:102C70003FFA80BD70B55C21435A0268C16F2229BA
:102C80000ED101465831928C1A40436D1A804A8801
:102C9000521E4A809A1C42654A88002A05D070BD9F
:102CA000906908210143916170BDEFF31083012207
:102CB00082F310880924640105682E68A6432E60FB
:102CC00083F31088EFF3108382F310880468A568FB
:102CD0009543A56083F310882023C36700234366D0
:102CE000046E012C14D10366EFF3108382F3108875
:102CF0000468256810229543256083F310880368D3
:102D0000DC69E40600D51A620988FFF7F0F970BDA6
:102D1000FFF712FD70BD70B55C21435A0268C16FA8
:102D200022290FD101465831928C1A40436D1A70F6
:102D30004A88521E4A80426D521C42654A88002AC7
:102D400005D070BD906908210143916170BDEFF31A
:102D50001083012282F310880924640105682E681B
:102D6000A6432E6083F31088EFF3108382F310885C
:102D70000468A5689543A56083F310882023C36782
:102D800000234366046E012C14D10366EFF3108315
:102D900082F310880468256810229543256083F328
:102DA00010880368DC69E40600D51A620988FFF719
:102DB0009EF970BDFFF7C0FC70BD0000B0B50446C1
:102DC00000680168424A0A40A16823690B436569AB
:102DD0001D43E1690D431543056003221203436857
:102DE0009343E2681A434260A269236A13430B22A9
:102DF0001202856895431D4385600022354B984239
:102E000006DC374B984211D0364B98420ED00CE07E
:102E1000314B98420AD0314A904206D1324800687C
:102E20008007000F31A2125800E010220125EB03A9
:102E30003248994210D1082A44D8C0467A441279BF
:102E400052009744043F203F193F3F3F1F00FEF7C9
:102E5000B1FD002817D113E0082A33D87A4412793B
:102E600052009744042F242F1D2F2F2F2300FEF7ED
:102E7000A1FD00281BD117E0FEF7AAFD002802D112
:102E800000251FE01846400061684A08101800F04D
:102E9000A5FB1B49014015D00007400F08430EE079
:102EA000FEF796FD002802D100250BE01846616868
:102EB0004A08101800F092FB80B2102802D3216853
:102EC000C860002500206066A0662846B0BDC046E8
:102ED000F369FFEFFF4B0040004C00400038014019
:102EE0000044004000480040301002400000000054
:102EF00004000000080000000200000000127A0038
:102F0000F0FF0000F0B587B016460F46054604688E
:102F1000E1693940C91B4A424A410020B24224D1EA
:102F2000069304952A4674320C9D002D1FD0691C0F
:102F300043D1E1693940C91B4A424A41B24214D1E6
:102F4000E1693940C91B4A424A41B2420DD1E169A7
:102F50003940C91B4A424A41B24206D1E16939406F
:102F6000C91B4A424A41B242E3D007B0F0BD0392C6
:102F7000FEF790F9049CEFF31081012080F3108894
:102F80000D22520123681D6895431D6081F310884E
:102F9000EFF3108180F31088226893688343936075
:102FA00081F310882020A0677C34039900200870EA
:102FB00020202060032007B0F0BD03920290012082
:102FC0000190C0020590049C06E0C0693840C01B17
:102FD00041424141B1422DD1FEF75CF90699401AB8
:102FE000A842C8D8206801684907EED5C169059A8A
:102FF0001142EAD005990162EFF31080019D85F33B
:1030000010880D214901226813688B43136080F3F7
:103010001088EFF3108085F3108821688A68AA432E
:103020008A6080F310882020A067E06703990C462F
:103030000C34BBE7029807B0F0BD000080B5024831
:10304000FFF758F880BDC04688020020F0B587B071
:1030500005463B4E307888425ED206950024E04318
:10306000019002940594049101E08F4250D2069D94
:1030700029896868059AFEF705F97D20039080008C
:10308000FDF7E4FF2989686801273A46FEF7FAF858
:10309000059809E001250C4606460A20FDF7D6FFF3
:1030A000701CC72E264E12DA7169002905D0002542
:1030B0007561002C06D03C46EEE70021002CE9D0DB
:1030C0000846E7E73178491C31703C46E4E7377839
:1030D00004998F42C9D90698418AC06800273A46A8
:1030E000FEF7D0F803980001FDF7B0FF0698418A7B
:1030F000C0680122FEF7C6F8049937700298401C98
:103100000290C0B20328B0D9019C204607B0F0BDA0
:10311000002D019C069DF8D0298AE86800242246EB
:10312000FEF7B0F87D20C000FDF790FF298AE8681F
:103130000122FEF7A7F83470204607B0F0BDC04664
:1031400098000020A0B0FEF79BFA0025199517956E
:103150001A9518951B9516951595122014901F9584
:10316000012001051E91C1031D9102241C94199098
:10317000179010201A9018900F950E950D950C959C
:1031800014A8FEF743FC002803D0EFF3108072B6BA
:10319000FEE71395129511940720109010A80124B2
:1031A0002146FEF76BFB002803D0EFF3108072B6C8
:1031B000FEE70E9520200B900BA8FEF7D1FA002811
:1031C00003D0EFF3108072B6FEE718951795E00470
:1031D000EA4A116801431160116801400B910B9894
:1031E000A005116801431160116801400B910B9813
:1031F0006004116801431160116801400B910B9844
:10320000A004116801431160116801400B910B98F3
:1032100009200990C6060320C0020A940746044606
:1032200008902037304639462A46FEF72BF8D44816
:1032300021462A46FEF726F816952120000415900F
:103240000A9840031490CF4814AC2146FDF726FF9E
:10325000179516950A98159014970A9F059630466B
:103260002146FDF71BFF17951695159708981490A2
:10327000C3482146FDF712FF0724204629462A4667
:10328000FEF74EFA2046FEF73FFABC49086838437D
:1032900008600868384014901498099E3046294602
:1032A0002A46FEF73DFA3046FEF72EFAB6480C26BF
:1032B0004B21CF01B54982C0056045608560C6607D
:1032C000056145618561C5610838FFF7E5F80028AB
:1032D00003D0EFF3108072B6FEE7079708960694C6
:1032E0002421AB4845540A9F876205620421A94AFC
:1032F000FF23C23324C0056045608760C16005615B
:1033000043610838FDF724FC002803D0EFF3108058
:1033100072B6FEE71495380716903F0315979C4840
:1033200014A9FDF7DDFA002803D0EFF3108072B680
:10333000FEE7994899499A4A7D23DC00631E0260A2
:1033400041608560C360056145618561FEF782FD6E
:10335000002803D0EFF3108072B6FEE7914892493F
:10336000924A0260416085600A99C16005614561C9
:103370008561C5610562FDF7D5FF002803D0EFF335
:10338000108072B6FEE787480021FDF787FF00280E
:1033900003D0EFF3108072B6FEE78248002529467D
:1033A000FDF79EFF002803D0EFF3108072B6FEE712
:1033B00009947F487F490160079941608560C56035
:1033C0000561089941618561C56105624562FFF744
:1033D00063F8002803D0EFF3108072B6FEE7764959
:1033E000083108916A480A9E3246FDF7B1FCF102A5
:1033F0000791059C20463246FDF744FF204639469A
:103400003246FDF73FFF5E4807993246FDF73AFF27
:103410005B4839463246FDF735FF302066490D548A
:103420000846303165484C608860554ACA6008617A
:10343000049108984861069C09980290019414AC84
:103440000094D02100220123564807920893FDF7EB
:10345000BDFF20780F25010928400A26714308186E
:103460005549087661780A09294072435118524A31
:103470005176A27813092A4073439A184E4B9A76D4
:10348000E3781F092B407743FB184B4FFB762379DA
:103490001F092B407743FB18474F3B7763791F0980
:1034A0002B407743FB18444F7B77A3791C092B40B3
:1034B0007443E318404CA377C0B20090D2B2CBB2B1
:1034C0003D4C1F3420463EA1FCF78CFE404F083790
:1034D000384621462A46FCF793FF2B4839462A46B0
:1034E000354D3346FFF776F93949173130483246C2
:1034F000FFF798F84920285CA97E81421AD14A201A
:10350000285C697E81420A9F15D1002F13D0314873
:10351000169031481590149014A90A221A4813469F
:10352000FFF758F94820295C0498FFF78FFD686081
:10353000079F00E00A9F4A202C5C6D7E0998FDF7EA
:1035400085FD089E3046FDF781FDA54200D0374637
:103550000A97194D28690128069C00D06CE72021A4
:103560000598FDF787FEC820FDF770FD012104983E
:10357000FFF76CFD079828615EE7C0461410024013
:1035800000040048000800480402002000440040F5
:10359000EC00002000240140BC0100207FBB0000A3
:1035A00000440140700100200E090020005400403A
:1035B0008802002000480040980000200008001009
:1035C000253032643A253032643A253032640A00BC
:1035D00000000020686100006861686143088B4258
:1035E0001AD3002203098B4279D3030A8B425ED39C
:1035F000030B8B4242D3030C8B4227D30902FF22D9
:1036000012BA030C8B4202D31212090203D0030B2D
:103610008B4233D31AE0D3E0411A8041401C7047FB
:1036200003460B4371D443088B42F5D300220309B0
:103630008B4254D3030A8B4239D3030B8B421DD3E5
:10364000030C8B4202D394466EE0090AC30B8B42F3
:1036500001D3CB03C01A5241830B8B4201D38B039E
:10366000C01A5241430B8B4201D34B03C01A524143
:10367000030B8B4201D30B03C01A5241C30A8B4286
:1036800001D3CB02C01A5241830A8B4201D38B0271
:10369000C01A5241430A8B4201D34B02C01A524115
:1036A000030A8B4201D30B02C01A5241CDD2C30987
:1036B0008B4201D3CB01C01A524183098B4201D303
:1036C0008B01C01A524143098B4201D34B01C01AEE
:1036D000524103098B4201D30B01C01A5241C30866
:1036E0008B4201D3CB00C01A524183088B4201D3D5
:1036F0008B00C01A524143088B4201D34B00C01AC1
:103700005241411A524110007047CA0F00D049423D
:10371000031000D34042534000229C4603098B42D1
:103720002DD3030A8B4212D38901FC2212BA030A59
:103730008B420CD3890192118B4208D389019211DB
:103740008B4204D3890137D0921100E08909C30963
:103750008B4201D3CB01C01A524183098B4201D362
:103760008B01C01A524143098B4201D34B01C01A4D
:10377000524103098B4201D30B01C01A5241C308C5
:103780008B4201D3CB00C01A524183088B4201D334
:103790008B00C01A5241D9D243088B4201D34B004F
:1037A000C01A5241411A00D20146524110466346A6
:1037B0005B1000D34042704763465B1000D3404229
:1037C00001B50021004201D0C9430846C046C046A9
:1037D00002BD10B500F056F8EFF30080800001D56F
:1037E000012010BD002010BD30380A2801D2012070
:1037F000704700207047000070B50125ED070400F8
:103800004C4020D4441A01D2001B0919C60D4B00AC
:10381000F2B2FF2A29D01B0E2CD000020C02284342
:103820002C43D31ADC40051910D2280A02D3401CBD
:103830006D0611D0761EF6058019FF2A00DA70BDDC
:10384000C00DC00570BD694000F0A4F8012005431B
:10385000C541521C761CE8E764089C40C9016140E0
:103860008900E7D10124A043E4E71B0E440200D005
:10387000034870BD002AFCD1C00FC00770BD00BF57
:103880000000C07F0123DB0502000A430DD4DA42A9
:1038900003D49A4207D488427047D84214D4D942FC
:1038A00012D48842704780427047DA4203D59A4268
:1038B000F9D5814270475B004200DA4204D24A00E7
:1038C000DA4201D28142704710B5024AFCF796FEF7
:1038D00010BD00BF0900130470B5420064414B00E5
:1038E0005C41120E39D01B0E38D0FF2A3CD0FF2B82
:1038F0003AD0D2187F3A40024902400A490A451894
:10390000ED0106004E43000A090A48430104731AF8
:103910004019190C4318990F04D05B08012149077D
:103920005B1A521CD80904D3401CF50301D19D0633
:1039300007D0FF2A08D2D50506D0E4072043401956
:1039400070BD0125A843F4E7002A01DCE00770BD43
:103950002402FF202043C00570BD1B0EFF2A03D0A8
:10396000FF2B01D0E00770BDFF2636064500B542AB
:1039700006D84D00B54203D8D218FF2A00D0E7E799
:10398000004870BD0000C07F70B50125ED07040040
:103990004C4022D4441A02D26C40001B0919C60DB7
:1039A0004B00F2B2FF2A4BD01B0E50D000020C028B
:1039B000A8432C43D31ADC40051B05D5AD0019D311
:1039C0006D08761E521E37D0F605280A01D28019DE
:1039D00070BD70416D0603D070BD6940FFF712FFE6
:1039E0009C4009026140490001D0401E70BD012485
:1039F000A04370BD6D081DD001202B0C01D12D04FA
:103A000010302B0E01D12D0208302B0F01D12D01CA
:103A1000001DAB0F01D1AD00801CEB0F01D16D007B
:103A2000401C361A121A6D00680AF5054019012A61
:103A300002DB70BD002070BDC036300AC00770BD0B
:103A40001B0E440201D1FF2B00D1024870BD002A99
:103A5000F0D070BD0000C07F04000008000000002E
:103A60000000000200010000100000000000000043
:103A70000001020304060708090000000001020318
:103A80000402030405060708090A0B0C0D0E0F10AB
:103A9000100102030405060708090A0B0C0D0E0F9E
:103AA00010000000C83A00080000002038000000A4
:103AB00004010008003B000838000020D80800007E
:103AC000200100080000000000F07F459A99993E0F
:103AD000736B6A736A64736B7300000000000031DB
:103AE00032333435303936373800000000000000FA
:103AF000010000000400000000127A000000000035
:04000005080000C12E
:00000001FF
